:020000040800F2
:1000000000000120C5020008CB020008CF02000852
:1000100041030008450300088D03000800000000AC
:10002000000000000000000000000000D5030008F0
:10003000D903000800000000DD030008C11E00080D
:10004000F1030008F1030008F1030008F1030008C0
:10005000F1030008F1030008B9210008D9210008C4
:10006000F92100081922000839220008A9220008F5
:10007000B9220008C9220008D9220008E922000894
:10008000F922000809230008F1030008000000001D
:1000900000000000000000000000000059220008DD
:1000A000F1030008F1030008F1030008291E00080D
:1000B000F51D0008F91D0008091E0008F1030008DD
:1000C000F1030008F1030008F1030008F103000840
:1000D000F1030008CD100008251000080000000002
:1000E00081220008F1030008F1030008000000006D
:1000F00000000000000000000000000019230008BC
:1001000000000000F1030008191E0008F1030008B8
:1001100000000000000000000000000000000000DF
:10012000292300083923000849230008592300081F
:10013000692300080000000000000000000000002B
:10014000000000000000000000000000F1030008B3
:10015000792300088923000899230008F103000887
:10016000F1030008F1030008000000000000000097
:10017000000000000000000000000000000000007F
:1001800000000000F1030008000000000000000073
:10019000F103000800B583B000F040FE384B394A47
:1001A0001360394A1360394900E02146384B9942BF
:1001B0000BD20A684B6801F10C0488689842F4D9A4
:1001C0001168196004330432F8E72E4B1A68314B7A
:1001D0009A4200D0FEE72C4B1A682F4B9A42F9D175
:1001E000274B2E4A13602E4A13602E4B05E0002049
:1001F000106004329342FAD80B462B4A934204D241
:10020000194651F8082B5B68F4E7244B1B6813B9B7
:10021000234B1B6803B1FEE702F01AFA694601A8F6
:1002200000F08EFD214C224BE41AA4100025AC42B4
:1002300014DC204C204BE41AA4100025AC4213DC43
:100240000099019802F00EFB05461C4C1C4BE41A69
:10025000A410002C0EDC284600F044FD144B53F88B
:10026000253098470135E2E7134B53F8253098477E
:100270000135E3E7013C124B53F824309847E8E797
:10028000BABADECA0000002074000020F40300089F
:100290000C04000878563412325476987800002006
:1002A0008C0100200C0400081C0400081C04000839
:1002B0001C0400081C0400081C0400081C0400089E
:1002C0001C04000808B5FFF765FF00BEFEE71EF03E
:1002D000040F0CBFEFF30880EFF309807146414A29
:1002E00010472DE9F04182B004468846124B5E6B00
:1002F0009F6B9D6A1B6B13F0020F03D00E4BDB6AE2
:10030000002B0CDB0D4800F02DFDCDF800803B46A6
:1003100032462946204600F08DFD00BEFEE74BF632
:10032000AB6100F001FE0028ECD0034B4FF000421F
:10033000DA6202B0BDE8F08100ED00E0A83B000801
:1003400000BEFEE71EF0040F0CBFEFF30880EFF3D2
:1003500009807146244A10472DE9F04182B00446D5
:100360008846084B5E6B9F6B9D6A074800F0FAFC5D
:10037000CDF800803B4632462946204600F05AFD23
:1003800000BEFEE700ED00E0B83B00081EF0040FE1
:100390000CBFEFF30880EFF309807146134A104752
:1003A0002DE9F04182B004468846084B5E6B9F6B96
:1003B0009D6A074800F0D6FCCDF800803B463246E7
:1003C0002946204600F036FD00BEFEE700ED00E0C5
:1003D000C43B000800BEFEE700BEFEE700BEFEE72D
:1003E00070470000E302000859030008A103000859
:0403F00000BEFEE766
:1003F400183C00080000002078000020183C000889
:10040400000000100000001078000020900100207F
:080414000000001000000010C0
:1004200010B50446074B1868074BA3FB0030800942
:1004300000F090F8002221464FF0FF3000F044F821
:10044000002010BD0C000020D34D621008B50B4BEE
:100450001A6842F400721A601A6842F480621A60E4
:100460001A6842F480721A60032000F00FF80F201F
:10047000FFF7D6FF02F03EFA002008BD003C024024
:10048000014B1868704700BF8001002010B504467A
:10049000C31E042B0FD80A4AD36823F4E0631B045D
:1004A0001B0C240204F4E064234343F0BF6343F4D1
:1004B0000033D36010BDA421024800F049FCEAE7F4
:1004C00000ED00E0D839000870B505460C46164628
:1004D0000F2A25D80F2C28D81B4BDB68C3F3022327
:1004E000C3F10702042A28BF0422191D062921D9B5
:1004F000033B4FF0FF3101FA02F224EA02049C4070
:1005000001FA03F326EA03063443002D14DB240129
:10051000E4B205F1604505F5614585F8004370BD1D
:10052000BC210A4800F014FCD4E7BD21074800F0C4
:100530000FFCD1E70023DCE705F00F052401E4B24E
:10054000034B5C55EBE700BF00ED00E0D839000835
:1005500014ED00E00138B0F1807F0AD2064B5860FC
:10056000064AF02182F823100020986007221A60C2
:1005700070470120704700BF10E000E000ED00E090
:1005800010B50446042800D038B9042C0BD0094A11
:10059000136823F00403136010BD40F2B311064842
:1005A00000F0D6FBF1E7034A136843F0040313603D
:1005B000F2E700BF10E000E0D839000830B583B0A2
:1005C000044603680F2B29D8236813F0010F3DD090
:1005D0006368012B01D9052B25D1A34B9B6803F040
:1005E0000C03042B29D0A04B9B6803F00C03082BB1
:1005F0001ED022799D4B1A706368002B50D0FFF7F4
:100600003FFF0546984B1B6813F4003F1ED1FFF7D0
:1006100037FF401B6428F5D90320E3E1F521944816
:1006200000F096FBD0E7FA21914800F091FBD4E767
:100630008D4B5B6813F4800FDBD08B4B1B6813F47E
:10064000003F03D06368002B00F0C981236813F0DA
:10065000020F5DD0E368012B31D823691F2B34D8FA
:10066000814B9B6813F00C0F3AD07F4B9B6803F0D3
:100670000C03082B2FD0E368002B74D07D4B012294
:100680001A60FFF7FDFE0546774B1B6813F0020F5B
:100690005AD1FFF7F5FE401B0228F5D90320A1E14E
:1006A000FFF7EEFE0546704B1B6813F4003FCDD0FC
:1006B000FFF7E6FE401B6428F5D9032092E14FF4D2
:1006C00096716B4800F044FBC7E740F22D11684873
:1006D00000F03EFBC4E7644B5B6813F4800FCAD1A3
:1006E000614B1B6813F0020F04D0E368012B01D0AB
:1006F000012077E15C48036823F0F8032169F822C0
:1007000092FAA2F2B2FA82F201FA02F21343036001
:10071000236813F0080F50D06369012B35D8636943
:10072000002B38D0544B01221A60FFF7A9FE054672
:100730004D4B5B6F13F0020F3FD1FFF7A1FE401B43
:100740000228F5D903204DE14748036823F0F80358
:100750002169F82292FAA2F2B2FA82F201FA02F2C6
:1007600013430360D4E7434B00221A60FFF788FE6F
:1007700005463D4B1B6813F0020FC9D0FFF780FE02
:10078000401B0228F5D903202CE140F26D113848B6
:1007900000F0DEFAC3E7384B00221A60FFF770FE64
:1007A0000546314B5B6F13F0020F06D0FFF768FE72
:1007B000401B0228F5D9032014E1236813F0040F2D
:1007C00060D0A368012B01D9052B1FD10023019311
:1007D000254B1A6C42F080521A641B6C03F0805354
:1007E0000193019B254A136843F480731360FFF75C
:1007F00047FE0546214B1B6813F4807F0CD1FFF7A1
:100800003FFE401B0228F5D90320EBE040F2971190
:10081000174800F09DFAD9E7227A194B1A70A3689D
:1008200083B1FFF72DFE05460F4B1B6F13F0020F30
:1008300028D1FFF725FE401B41F288339842F3D9B7
:100840000320CFE0FFF71CFE0546074B1B6F13F09C
:10085000020F17D0FFF714FE401B41F28833984275
:10086000F3D90320BEE000BF003802400238024046
:100870001C3A000800004742800E474200700040CA
:1008800070380240A369022B39D8A369002B00F00D
:10089000A880564A926802F00C02082A00F0A48050
:1008A000022B40F08880E36913B1B3F5800F2CD19F
:1008B000236A3F2B2FD8636A323BB3F5BF7F30D812
:1008C000A36A022B05D0042B03D0062B01D0082BE2
:1008D0002DD1E36A043B0B2B2FD8454B00221A6025
:1008E000FFF7CEFD0546414B1B6813F0007F2AD071
:1008F000FFF7C6FD401B0228F5D9032072E04FF434
:10090000E6713C4800F024FABFE740F2D5113948BF
:1009100000F01EFACCE74FF4EB71364800F018FAFD
:10092000C9E740F2D711334800F012FAC8E74FF494
:10093000EC71304800F00CFACBE740F2D9112D48A9
:1009400000F006FAC9E7E369226A1343616A47F6D1
:10095000C07292FAA2F2B2FA82F201FA02F21343E0
:10096000A26A5208013A4FF4403191FAA1F1B1FA6A
:1009700081F18A401343E16A4FF0706292FAA2F269
:10098000B2FA82F201FA02F21343184A5360184B8A
:1009900001221A60FFF774FD0446144B1B6813F024
:1009A000007F06D1FFF76CFD001B0228F5D903205C
:1009B00018E0002016E00E4B00221A60FFF760FDE1
:1009C00004460A4B1B6813F0007F06D0FFF758FD62
:1009D000001B0228F5D9032004E0002002E00120DA
:1009E00000E0002003B030BD0120FBE700380240EA
:1009F000600047421C3A00081F4B9B6803F00C0341
:100A0000082B36D11C4B586800F03F005B6813F48C
:100A1000800F1ED0194AB2FBF0F2174B586847F608
:100A2000C073184093FAA3F3B3FA83F3D84000FBE2
:100A300002F0114B5B6803F440334FF4403292FAFA
:100A4000A2F2B2FA82F2D34001335B00B0FBF3F0C2
:100A500070470A4AB2FBF0F2074B586847F6C0737A
:100A6000184093FAA3F3B3FA83F3D84000FB02F0E3
:100A7000DFE70248704700BF003802400024F4005E
:100A800070B504460D460368013B0E2B11D8072DA7
:100A900015D88C4B1B6803F00F03AB4215D2EBB299
:100AA000884A1370136803F00F03AB420DD0012086
:100AB00070BD40F23721844800F04AF9E7E74FF46F
:100AC0000E71814800F044F9E3E7236813F0020F48
:100AD00018D0A3687BB1802B0DD0902B0BD0A02B0E
:100AE00009D0B02B07D0C02B05D0D02B03D0E02BE2
:100AF00001D0F02B37D1754A936823F0F003A16839
:100B00000B439360236813F0010F73D06368032BCA
:100B10002FD86368012B32D09A1E012A36D96B4A2E
:100B2000126812F0020F00F0CA8068498A6822F049
:100B3000030213438B60FFF7A3FC06466368012B97
:100B40002BD0022B38D0032B45D0604B9B6813F081
:100B50000C0F4FD0FFF794FC801B41F28833984272
:100B6000F3D90320A4E740F24F21574800F0F0F8F2
:100B7000C1E740F25621544800F0EAF8C9E7534A69
:100B8000126812F4003FD0D1012091E74F4A126859
:100B900012F0007FC9D101208AE74C4B9B6803F01B
:100BA0000C03042B26D0FFF76BFC801B41F288332B
:100BB0009842F2D903207BE7444B9B6803F00C0377
:100BC000082B17D0FFF75CFC801B41F2883398425A
:100BD000F2D903206CE73D4B9B6803F00C030C2B10
:100BE00008D0FFF74DFC801B41F288339842F2D9C0
:100BF00003205DE7334B1B6803F00F03AB4209D9B9
:100C0000EAB2304B1A701B6803F00F03AB4201D0FD
:100C100001204DE7236813F0040F14D0E3685BB1A3
:100C2000B3F5805F08D0B3F5A05F05D0B3F5C05F22
:100C300002D0B3F5E05F36D1244A936823F4E05341
:100C4000E1680B439360236813F0080F15D0236904
:100C50005BB1B3F5805F08D0B3F5A05F05D0B3F505
:100C6000C05F02D0B3F5E05F23D1184A936823F444
:100C70006043216943EAC1039360FFF7BDFE134B54
:100C80009B6803F0F003F02292FAA2F2B2FA82F229
:100C9000D3400F4AD35CD8400E4B18600F20FFF7AB
:100CA000BFFB002004E74FF42D71074800F050F817
:100CB000C2E740F2BB21044800F04AF8D5E7012022
:100CC000F6E600BF003C02401C3A00080038024033
:100CD0000C3A00080C000020014B1868704700BF58
:100CE0000C000020FEE7000008B5034800F052F8B1
:100CF0000120FFF7F7FF00BF4C3A000808B5034694
:100D00000C4A12685AB10B4A1068033323F00303EC
:100D10000344094A934206D8064A136008BD054AAF
:100D200006491160EFE702F0D5F90C2303604FF09C
:100D3000FF30F3E77C00002000FC00209001002041
:100D400001230360014B0B60704700BF04000020CB
:100D500008B50A460146024800F004F8FFF7C4FF50
:100D6000603A00080FB400B583B004AB53F8042B0D
:100D700001938021064802F0E7F9002803DD0146CF
:100D8000034800F047F803B05DF804EB04B0704787
:100D90008400002010B5044602F0A2F90146204666
:100DA00000F038F80121024800F034F810BD00BF0F
:100DB000243B00082DE9F04385B004460F46435616
:100DC0000BB10E461EE0042528462146ABBE044664
:100DD000384605B0BDE8F08314F9011B04AA1A4493
:100DE00002F8101C0133AB42F6D304AA13440022CC
:100DF00003F8102C4FF00408E94640464946ABBEC4
:100E00008046761B002EE3D03546102E28BF1025D5
:100E10000023E8E708B5FFF7CDFF08BD08B500F0EF
:100E200093F8024A024B9A6008BD00BF0000000818
:100E300000ED00E0F8B504460D4617461E4627486B
:100E4000FFF790FF21682648FFF78CFF616825486F
:100E5000FFF788FFA1682448FFF784FFE168234873
:100E6000FFF780FF21692248FFF77CFF6169214875
:100E7000FFF778FFA1692048FFF774FFE1691F4879
:100E8000FFF770FF1E48FFF76DFF29461D48FFF76B
:100E900069FF1D4CE16A1D48FFF764FF216B1C4888
:100EA000FFF760FFE16B1B48FFF75CFF15F0800F59
:100EB0000AD115F4004F0CD11748FFF753FF0699DC
:100EC0001648FFF74FFFF8BD39461548FFF74AFFB0
:100ED000EFE731461348FFF745FFEDE78C3A00088E
:100EE0009C3A0008AC3A0008BC3A0008CC3A00082A
:100EF000DC3A0008EC3A0008FC3A00080C3B000819
:100F00001C3B0008283B000800ED00E0383B0008CF
:100F1000483B0008583B0008883B0008903B00080D
:100F2000683B0008783B000883691A888A4201D030
:100F3000002070470268033A012A03D80233836114
:100F400001207047002070470C4B1A6842F00102E4
:100F50001A60002199601A6822F0847222F48032AB
:100F60001A60074A5A601A6822F480221A60D9600F
:100F7000044B4FF000629A60704700BF0038024097
:100F80001030002400ED00E0224B9B6803F00C03BE
:100F9000042B14D0082B16D01BB11F4B1F4A1A600C
:100FA00002E01D4B1D4A1A601A4B9B68C3F30313E2
:100FB0001B4AD15C184A1368CB4013607047164B2C
:100FC000164A1A60F0E7134B5A685B6803F03F0358
:100FD00012F4800F13D0114AB2FBF3F20D4B5B6891
:100FE000C3F3881303FB02F30A4A5268C2F30142B7
:100FF00001325200B3FBF2F3074A1360D4E7074A09
:10100000B2FBF3F2034B5B68C3F3881303FB02F3F9
:10101000EAE700BF003802400C0000200024F40082
:10102000D43B000808B5024B1B6803B1984708BDC4
:1010300004010020104B40F283629A601A6922F486
:1010400080521A611A6922F400521A61DA6822F495
:101050008052DA60DA6822F40042DA605A6942F4B7
:1010600000625A61DA6842F00802DA60DA6842F037
:101070000402DA60704700BF00100140044B586062
:1010800000E000BF024B1B6813F0800FF9D07047DF
:1010900000100140014B5868C0B270470010014079
:1010A000024AD36843F02003D36070470010014028
:1010B000024AD36843F40053D360704700100140E4
:1010C000014B1860704700BF0801002008B5024BB3
:1010D0001B6803B1984708BD0801002004282AD0E6
:1010E00005284ED0032800D070470329FCD8DFE83C
:1010F00001F0020A121A3649CA624B630B6843F0C8
:1011000001030B6070473249CA628B630B6843F07E
:1011100001030B6070472E49CA62CB630B6843F032
:1011200001030B6070472A49CA620B640B6843F0E5
:1011300001030B6070470329D6D8DFE801F0020AEB
:10114000121A2449CA624B630B6843F001030B6017
:1011500070472049CA628B630B6843F001030B6040
:1011600070471C49CA62CB630B6843F001030B60F4
:1011700070471849CA620B640B6843F001030B60A7
:1011800070470329B0D8DFE801F0020A121A1249A9
:10119000CA624B630B6843F001030B6070470E4952
:1011A000CA628B630B6843F001030B6070470A4906
:1011B000CA62CB630B6843F001030B6070470649BA
:1011C000CA620B640B6843F001030B608CE700BF3D
:1011D0000004004000080040000C0040042800F01B
:1011E000FA80052800F0F181032800D07047032918
:1011F000FCD8DFE811F004003F007A00B500984BFE
:101200009A6922F002029A619A6942F001029A6197
:101210009A6922F080029A619A6922F040029A61EA
:101220009A6922F020029A619A6922F010029A616A
:101230009A6922F008029A619A6922F004029A617E
:101240001A6A42F002021A621A6A42F008021A622C
:101250001A6A42F001021A6210229A624FF6FF7275
:10126000DA62DA6842F00202DA601A6842F00102D9
:101270001A6070477A4B9A6922F400729A619A69EF
:1012800042F480729A619A6922F400429A619A69E2
:1012900022F480429A619A6922F400529A619A6912
:1012A00022F480529A619A6922F480629A619A6962
:1012B00022F400629A611A6A42F080021A621A6A83
:1012C00042F020021A621A6A42F010021A621022D8
:1012D0009A624FF6FF72DA62DA6842F00402DA606C
:1012E0001A6842F001021A6070475D4BDA6922F019
:1012F0000202DA61DA6942F00102DA61DA6922F0A7
:101300008002DA61DA6922F04002DA61DA6922F0F9
:101310002002DA61DA6922F01002DA61DA6922F079
:101320000802DA61DA6922F00402DA611A6A42F428
:1013300000621A621A6A42F400721A621A6A42F46D
:1013400080721A6210229A624FF6FF72DA62DA68CD
:1013500042F00802DA601A6842F001021A6070472F
:101360003F4BDA6922F40072DA61DA6942F4807282
:10137000DA61DA6922F40042DA61DA6922F4804241
:10138000DA61DA6922F40052DA61DA6922F4805211
:10139000DA61DA6922F48062DA61DA6922F40062E1
:1013A000DA611A6A42F400421A621A6A42F400527E
:1013B0001A621A6A42F480521A6210229A624FF636
:1013C000FF72DA62DA6842F01002DA601A6842F0FC
:1013D00001021A60704703293FF608AFDFE811F0F9
:1013E000040044007F00BA001E4B9A6922F00202FA
:1013F0009A619A6942F001029A619A6922F0800228
:101400009A619A6922F040029A619A6922F0200258
:101410009A619A6922F010029A619A6922F0080290
:101420009A619A6922F004029A611A6A42F00202F1
:101430001A621A6A42F008021A621A6A42F001023B
:101440001A6210229A624FF6FF72DA62DA6842F08C
:101450000202DA601A6842F001021A60704700BFA7
:101460000004004000080040974B9A6922F4007283
:101470009A619A6942F480729A619A6922F40042F0
:101480009A619A6922F480429A619A6922F4005220
:101490009A619A6922F480529A619A6922F4806270
:1014A0009A619A6922F400629A611A6A42F0800293
:1014B0001A621A6A42F020021A621A6A42F0100294
:1014C0001A6210229A624FF6FF72DA62DA6842F00C
:1014D0000402DA601A6842F001021A6070477A4B1F
:1014E000DA6922F00202DA61DA6942F00102DA61B5
:1014F000DA6922F08002DA61DA6922F04002DA6108
:10150000DA6922F02002DA61DA6922F01002DA6187
:10151000DA6922F00802DA61DA6922F00402DA619B
:101520001A6A42F400621A621A6A42F400721A627B
:101530001A6A42F480721A6210229A624FF6FF729F
:10154000DA62DA6842F00802DA601A6842F00102F0
:101550001A6070475C4BDA6922F40072DA61DA696A
:1015600042F48072DA61DA6922F40042DA61DA69FF
:1015700022F48042DA61DA6922F40052DA61DA692F
:1015800022F48052DA61DA6922F48062DA61DA697F
:1015900022F40062DA611A6A42F400421A621A6A9C
:1015A00042F400521A621A6A42F480521A621022FD
:1015B0009A624FF6FF72DA62DA6842F01002DA607D
:1015C0001A6842F001021A60704703293FF60EAE16
:1015D000DFE811F004003F007E00B9003B4B9A6940
:1015E00022F002029A619A6942F001029A619A69B4
:1015F00022F080029A619A6922F040029A619A6907
:1016000022F020029A619A6922F010029A619A6986
:1016100022F008029A619A6922F004029A611A6A19
:1016200042F002021A621A6A42F008021A621A6A48
:1016300042F001021A6200229A624FF6FF72DA62E9
:10164000DA6842F00202DA601A6842F001021A60B7
:1016500070471E4B9A6922F400729A619A6942F4AB
:1016600080729A619A6922F400429A619A6922F41E
:1016700080429A619A6922F400529A619A6922F42E
:1016800080529A619A6922F480629A619A6922F47E
:1016900000629A611A6A42F080021A621A6A42F083
:1016A00020021A621A6A42F010021A6200229A623A
:1016B0004FF6FF72DA62DA6842F00402DA601A6802
:1016C00042F001021A60704700080040000C004020
:1016D0003A4BDA6922F00202DA61DA6942F0010279
:1016E000DA61DA6922F08002DA61DA6922F0400216
:1016F000DA61DA6922F02002DA61DA6922F0100296
:10170000DA61DA6922F00802DA61DA6922F00402A9
:10171000DA611A6A42F400621A621A6A42F40072CA
:101720001A621A6A42F480721A6200229A624FF6B2
:10173000FF72DA62DA6842F00802DA601A6842F090
:1017400001021A6070471D4BDA6922F40072DA61F7
:10175000DA6942F48072DA61DA6922F40042DA610D
:10176000DA6922F48042DA61DA6922F40052DA613D
:10177000DA6922F48052DA61DA6922F48062DA618D
:10178000DA6922F40062DA611A6A42F400421A62EB
:101790001A6A42F400521A621A6A42F480521A62B9
:1017A00000229A624FF6FF72DA62DA6842F01002A3
:1017B000DA601A6842F001021A6017E5000C004076
:1017C000023803287ED8DFE800F0022442600329B3
:1017D00078D8DFE801F0020910174FF08042D36893
:1017E00043F00203D36070474FF08042D36843F068
:1017F0000403D36070474FF08042D36843F008037E
:10180000D36070474FF08042D36843F01003D36039
:101810007047032956D8DFE801F002080E142A4A5F
:10182000D36843F00203D3607047274AD36843F07C
:101830000403D3607047244AD36843F00803D3609D
:101840007047214AD36843F01003D36070470329DF
:1018500038D8DFE801F002080E141C4AD36843F0C0
:101860000203D3607047194AD36843F00403D3607E
:101870007047164AD36843F00803D3607047134A91
:10188000D36843F01003D360704703291AD8DFE808
:1018900001F002080E140E4AD36843F00203D3602D
:1018A00070470B4AD36843F00403D3607047084A7B
:1018B000D36843F00803D3607047054AD36843F008
:1018C0001003D360704700BF0004004000080040D0
:1018D000000C0040023803287ED8DFE800F0022424
:1018E0004260032978D8DFE801F0020910174FF0B1
:1018F0008042D36823F00203D36070474FF08042E8
:10190000D36823F00403D36070474FF08042D3685C
:1019100023F00803D36070474FF08042D36823F070
:101920001003D3607047032956D8DFE801F002089E
:101930000E142A4AD36823F00203D3607047274A63
:10194000D36823F00403D3607047244AD36823F09C
:101950000803D3607047214AD36823F01003D36093
:101960007047032938D8DFE801F002080E141C4A3A
:10197000D36823F00203D3607047194AD36823F079
:101980000403D3607047164AD36823F00803D3607A
:101990007047134AD36823F01003D36070470329BC
:1019A0001AD8DFE801F002080E140E4AD36823F0BB
:1019B0000203D36070470B4AD36823F00403D3605B
:1019C0007047084AD36823F00803D3607047054A7C
:1019D000D36823F01003D360704700BF00040040B9
:1019E00000080040000C00401AB1012A00F0C98034
:1019F00070470238032800F29081DFE800F00235DA
:101A00006493032900F28981DFE801F0020D1823B5
:101A10004FF080431A6A22F002021A621A6A22F018
:101A200008021A6270474FF080431A6A22F02002BF
:101A30001A621A6A22F080021A6270474FF08043DD
:101A40001A6A22F400721A621A6A22F400621A6296
:101A500070474FF080431A6A22F400521A621A6AE1
:101A600022F400421A627047032900F25681DFE82F
:101A700001F0020C1620924B1A6A22F002021A623E
:101A80001A6A22F008021A6270478D4B1A6A22F015
:101A900020021A621A6A22F080021A627047884B8A
:101AA0001A6A22F400721A621A6A22F400621A6236
:101AB0007047834B1A6A22F400521A621A6A22F49F
:101AC00000421A627047032900F22781DFE801F023
:101AD000020C16207B4B1A6A22F002021A621A6A62
:101AE00022F008021A627047764B1A6A22F020022E
:101AF0001A621A6A22F080021A627047714B1A6ADF
:101B000022F400721A621A6A22F400621A627047A2
:101B10006C4B1A6A22F400521A621A6A22F40042CA
:101B20001A627047032900F2F880DFE801F0020C26
:101B30001620654B1A6A22F002021A621A6A22F013
:101B400008021A627047604B1A6A22F020021A6279
:101B50001A6A22F080021A6270475B4B1A6A22F4FA
:101B600000721A621A6A22F400621A627047564BB7
:101B70001A6A22F400521A621A6A22F400421A62A5
:101B800070470238032800F2C880DFE800F0023511
:101B90006492032900F2C180DFE801F0020D1823EE
:101BA0004FF080431A6A42F002021A621A6A22F067
:101BB00008021A6270474FF080431A6A42F020020E
:101BC0001A621A6A22F080021A6270474FF080434C
:101BD0001A6A42F400721A621A6A22F400621A62E5
:101BE00070474FF080431A6A42F400521A621A6A30
:101BF00022F400421A627047032900F28E80DFE867
:101C000001F0020C16202E4B1A6A42F002021A62F0
:101C10001A6A22F008021A627047294B1A6A42F0C7
:101C200020021A621A6A22F080021A627047244B5C
:101C30001A6A42F400721A621A6A22F400621A6284
:101C400070471F4B1A6A42F400521A621A6A22F451
:101C500000421A62704703295FD8DFE801F0020CE6
:101C60001620184B1A6A42F002021A621A6A22F00F
:101C700008021A627047134B1A6A42F020021A6275
:101C80001A6A22F080021A6270470E4B1A6A42F4F6
:101C900000721A621A6A22F400621A627047094BD3
:101CA0001A6A42F400521A621A6A22F400421A6254
:101CB0007047032931D8DFE801F009131D2700BF61
:101CC0000004004000080040000C0040134B1A6A5A
:101CD00042F002021A621A6A22F008021A6270477F
:101CE0000E4B1A6A42F020021A621A6A22F080022F
:101CF0001A627047094B1A6A42F400721A621A6A31
:101D000022F400621A627047044B1A6A42F40052CD
:101D10001A621A6A22F400421A627047000C0040EC
:101D2000023803284FD8DFE800F002182A3C0329C4
:101D30004BD8DFE801F002060A0E4FF08043586BE3
:101D400070474FF08043986B70474FF08043D86BDB
:101D500070474FF08043186C7047032937D8DFE88D
:101D600001F00205080B1D4B586B70471B4B986B1D
:101D700070471A4BD86B7047184B186C7047032983
:101D800027D8DFE801F00205080B154B586B7047A8
:101D9000134B986B7047124BD86B7047104B186CF5
:101DA0007047032917D8DFE801F00205080B0D4B37
:101DB000586B70470B4B986B70470A4BD86B70474A
:101DC000084B186C704700207047002070470020B7
:101DD0007047002070470020704700BF000400409B
:101DE00000080040000C0040014B1860704700BF25
:101DF0000C0100207047000008B5024B1B68984793
:101E000008BD00BF0C01002008B5024B1B689847B5
:101E100008BD00BF1001002008B5024B1B689847A1
:101E200008BD00BF1401002008B5024B1B6898478D
:101E300008BD00BF18010020024A136823F0040304
:101E40001360704710E000E00E4B1A6822F00202A7
:101E50001A604FF4FA6202FB00F0586000229A60A8
:101E60001A6842F001021A6000E000BF054B1B68CF
:101E700013F4803FF9D0034A136823F00103136081
:101E8000704700BF10E000E00C4B1A6822F002021D
:101E90001A604000586000229A601A6842F00102FD
:101EA0001A6000E000BF054B1B6813F4803FF9D0B7
:101EB000024A136823F001031360704710E000E04A
:101EC00008B5074B1B6803B19847064B1B68064BC8
:101ED0001B7823B9034A136823F00103136008BD7C
:101EE0002001002010E000E01C010020074A1368D8
:101EF00043F001031360064B1A6822F001021A60D6
:101F00001A6822F002021A60704700BF00380240CF
:101F100008380240072844D8DFE800F004240C2CDD
:101F200014341C3C1F480368012202FA01F11943D2
:101F3000016070471C480368012202FA01F119434D
:101F40000160704719480368012202FA01F1194340
:101F50000160704716480368012202FA01F1194333
:101F60000160704713480368012202FA01F1194326
:101F70000160704710480368012202FA01F1194319
:101F8000016070470D480368012202FA01F119430C
:101F9000016070470A480368012202FA01F11943FF
:101FA0000160704730380240343802404038024007
:101FB00044380240503802405438024060380240F1
:101FC0006438024000F01F02400901239340024A96
:101FD00042F82030704700BF00E100E010B4012853
:101FE00012D018B102281DD010BC7047144B1868CD
:101FF000490003248C4020EA04001860186802FAA3
:1020000001F101431960EFE70E4B18684900032402
:102010008C4020EA04001860186802FA01F10143BC
:102020001960E1E7084B1868490003248C4020EA56
:1020300004001860186802FA01F101431960D3E73F
:1020400000000240000402400008024002BB0128D8
:102050000CD010B1022812D070471E4843690122EB
:1020600002FA01F123EA0101416170471A4843690C
:10207000012202FA01F123EA010141617047174888
:102080004369012202FA01F123EA0101416170472B
:10209000012A00D0704701280BD010B1022810D0BF
:1020A00070470C484369012202FA01F1194341616A
:1020B000704709484369012202FA01F1194341615D
:1020C000704706484369012202FA01F11943416150
:1020D000E0E700BF000002400004024000080240A8
:1020E00010B4072930D8012812D018B102281DD009
:1020F00010BC70472D4B186A89000F248C4020EAD1
:1021000004001862186A02FA01F101431962EFE74C
:10211000274B186A89000F248C4020EA04001862BB
:10212000186A02FA01F101431962E1E7214B186ACA
:1021300089000F248C4020EA04001862186A02FA11
:1021400001F101431962D3E70839C9B201281ED051
:1021500078B10228CCD1174B586A89000F248C40E3
:1021600020EA04005862586A02FA01F101435962F8
:10217000BEE70E4B586A89000F248C4020EA040009
:102180005862586A02FA01F101435962B0E7084BFC
:10219000586A89000F248C4020EA04005862586A6B
:1021A00002FA01F101435962A2E700BF00000240B8
:1021B000000402400008024008B5054B1B6803B14B
:1021C0009847044A536943F00103536108BD00BFB7
:1021D00028010020003C014008B5054B5B6803B1B5
:1021E0009847044A536943F00103536108BD00BF97
:1021F00028010020003C014008B5054B9B6803B155
:102200009847044A536943F00103536108BD00BF76
:1022100028010020003C014008B5054BDB6803B1F4
:102220009847044A536943F00103536108BD00BF56
:1022300028010020003C014008B5054B1B6903B193
:102240009847044A536943F00103536108BD00BF36
:1022500028010020003C014008B5064B1A78064BC7
:1022600053F8223003B19847044A536943F00103FD
:10227000536108BD2401002028010020003C0140DA
:1022800008B5064B1A78064B53F8223003B198472D
:10229000044A536943F00103536108BD240100203F
:1022A00028010020003C014008B5024B1B6803B127
:1022B000984708BD6401002008B5024B1B6803B1B4
:1022C000984708BD6401002008B5024B1B6803B1A4
:1022D000984708BD6401002008B5024B1B6803B194
:1022E000984708BD6401002008B5024B1B6803B184
:1022F000984708BD6401002008B5024B1B6803B174
:10230000984708BD6401002008B5024B1B6803B163
:10231000984708BD6401002008B5024B1B6803B153
:10232000984708BD6401002008B5024B1B6803B143
:10233000984708BD6801002008B5024B1B6803B12F
:10234000984708BD6801002008B5024B1B6803B11F
:10235000984708BD6801002008B5024B1B6803B10F
:10236000984708BD6801002008B5024B1B6803B1FF
:10237000984708BD6801002008B5024B1B6803B1EF
:10238000984708BD6801002008B5024B1B6803B1DF
:10239000984708BD6801002008B5024B1B6803B1CF
:1023A000984708BD6801002010B52020FEF766FEA2
:1023B000254B1B7813B1012B0ED010BD002103203B
:1023C000FFF7AEFC214B186001221F4B1A70002151
:1023D0000320FFF709FBF0E700210320FFF7A0FC33
:1023E0001A4B1B68984220D9C01A194B1860184B19
:1023F000186800F0C3FB12A3D3E9002300F038FCF7
:102400000022144B00F034FC00F044FE124B187014
:1024100000240D4B1C70224621460320FFF7E4FAEE
:1024200021460320FFF756FAC7E79842DFD2C01AC9
:1024300000F57F40FF30064B1860D8E7AFF300800F
:102440009CC420B07268A13F6C0100207401002080
:10245000700100200000E03F8801002008B5012243
:1024600007211046FFF7BAFD022206210020FFF7E0
:10247000B5FD022206210020FFF732FE00210320D5
:10248000FEF7ACFE1D20FFF79DFD08BD10B5012233
:1024900007211046FFF7DAFD0A20FFF7F5FC0022BE
:1024A00007210120FFF7D2FD00210320FFF788F963
:1024B0001448FFF799FC0A20FFF7C6FC124B1B7863
:1024C000142B18D8002201211046FFF7BFFD0E4B38
:1024D0001B780E48A0FB0320C00800EB80025400CC
:1024E0001C1BE4B23034E4B23030FEF7C7FD2046A6
:1024F000FEF7C4FD10BD012211460020FFF7A6FD26
:10250000E5E700BFA923000888010020CDCCCCCC92
:1025100010B50446012807D0022801D10346032440
:1025200021B101290DD010BD0023F9E70122194680
:102530001046FFF78BFD002221460120FFF786FDA4
:10254000F1E7002219460120FFF780FD0122214614
:102550001046FFF77BFDE6E708B5012802D0022808
:1025600007D008BD13460A4600210320FEF7B6FD3A
:10257000F7E713460A4600210420FEF7AFFDF0E717
:1025800008B5012802D002280BD008BD0022114650
:102590000120FFF75BFD002201210846FFF756FDF1
:1025A000F3E7002202210120FFF750FD0022032162
:1025B0000120FFF74BFDE8E770B594B000240194CB
:1025C000204B1A6C42F080521A641B6C03F080534B
:1025D0000193019B02941C4B1A6842F440421A601A
:1025E0001B6803F440430293029B01230893099361
:1025F0004FF480030F93102310934FF4A87311939B
:10260000042612960723139302250E9508A8FDF7BA
:10261000D5FF0F230393049505944FF4805306933D
:102620000794294603A8FEF72BFAFEF755FB074B44
:10263000A3FB00308009FDF78DFF3046FDF7A0FFBA
:1026400014B070BD0038024000700040D34D6210DD
:1026500008B5FDF7FBFEFFF7AFFFFEF795FC08BDE1
:1026600008B5FEF717FD4238112800F2F380DFE8C5
:1026700000F029F1F1F10973B393CAF149F1F1F1D5
:10268000F1F15EEA4FF47A6242F210710120FFF735
:1026900063FF4FF47A6242F210710220FFF75CFF91
:1026A00000210120FFF734FF00210220FFF730FF57
:1026B0006420FFF7C9FB0120FFF762FF0220FFF74C
:1026C0005FFF08BD4FF47A6242F210710120FFF7FC
:1026D00043FF4FF47A6242F210710220FFF73CFF91
:1026E00001210846FFF714FF01210220FFF710FF28
:1026F0006420FFF7A9FB0120FFF742FF0220FFF74C
:102700003FFFDEE741F2707242F210710220FFF7E4
:1027100023FF00210220FFF7FBFE6420FFF794FB5C
:102720000220FFF72DFF0120FFF72AFFC9E741F242
:10273000707242F210710120FFF70EFF002101209C
:10274000FFF7E6FE6420FFF77FFB0120FFF718FF8D
:102750000220FFF715FFB4E740F6B83242F21071DD
:102760000120FFF7F9FE4FF47A7242F21071022055
:10277000FFF7F2FE00210120FFF7CAFE0021022030
:10278000FFF7C6FE6420FFF75FFB0120FFF7F8FEAE
:102790000220FFF7F5FE94E74FF47A7242F21071CF
:1027A0000120FFF7D9FE40F6B83242F21071022044
:1027B000FFF7D2FE00210120FFF7AAFE0021022030
:1027C000FFF7A6FE6420FFF73FFB0120FFF7D8FECE
:1027D0000220FFF7D5FE74E740F6B83242F21071DE
:1027E0000120FFF7B9FE4FF47A7242F21071022015
:1027F000FFF7B2FE01210846FFF78AFE0121022001
:10280000FFF786FE5DE74FF47A7242F21071012005
:10281000FFF7A2FE40F6B83242F210710220FFF735
:102820009BFE01210846FFF773FE01210220FFF7FE
:102830006FFE6420FFF708FB0120FFF7A1FE0220D6
:10284000FFF79EFE3DE70120FFF79AFE0220FFF70B
:1028500097FE36E70120FFF793FE0220FFF790FE78
:102860002FE7000008B5FFF741FB01210420FFF727
:1028700051FB02210420FFF74DFB00210846FFF722
:1028800049FB01210020FFF745FB04210620FFF74B
:1028900041FBFFF7D1FA2520FFF794FBFFF7DEFDA0
:1028A000012211460020FFF799FB02220921002096
:1028B000FFF794FB02220A210020FFF78FFB07227B
:1028C00009210020FFF70CFC07220A210020FFF756
:1028D00007FCFEF7AFFBFEF7EBFBFEF7E1FB04485E
:1028E000FEF7EEFBFFF7D2FD6420FFF7ADFAF9E744
:1028F000612600087047000081F0004102E000BF3F
:1029000083F0004330B54FEA41044FEA430594EAAF
:10291000050F08BF90EA020F1FBF54EA000C55EAEA
:10292000020C7FEA645C7FEA655C00F0E2804FEABB
:102930005454D4EB5555B8BF6D420CDD2C4480EA9D
:10294000020281EA030382EA000083EA010180EACD
:10295000020281EA0303362D88BF30BD11F0004F1B
:102960004FEA01314FF4801C4CEA113102D0404251
:1029700061EB410113F0004F4FEA03334CEA13338C
:1029800002D0524263EB430394EA050F00F0A780A4
:10299000A4F10104D5F1200E0DDB02FA0EFC22FA9F
:1029A00005F2801841F1000103FA0EF2801843FA93
:1029B00005F359410EE0A5F120050EF1200E012A84
:1029C00003FA0EFC28BF4CF0020C43FA05F3C018C2
:1029D00051EBE37101F0004507D54FF0000EDCF13B
:1029E000000C7EEB00006EEB0101B1F5801F1BD3E4
:1029F000B1F5001F0CD349085FEA30004FEA3C0CE8
:102A000004F101044FEA445212F5800F80F09A80DD
:102A1000BCF1004F08BF5FEA500C50F1000041EBE1
:102A2000045141EA050130BD5FEA4C0C404141EBE5
:102A3000010111F4801FA4F10104E9D191F0000F0C
:102A400004BF01460020B1FA81F308BF2033A3F18F
:102A50000B03B3F120020CDA0C3208DD02F1140C86
:102A6000C2F10C0201FA0CF021FA02F10CE002F1C1
:102A70001402D8BFC2F1200C01FA02F120FA0CFCBA
:102A8000DCBF41EA0C019040E41AA2BF01EB045103
:102A9000294330BD6FEA04041F3C1CDA0C340EDC01
:102AA00004F11404C4F1200220FA04F001FA02F344
:102AB00040EA030021FA04F345EA030130BDC4F102
:102AC0000C04C4F1200220FA02F001FA04F340EAF7
:102AD0000300294630BD21FA04F0294630BD94F0A8
:102AE000000F83F4801306BF81F480110134013D8F
:102AF0004EE77FEA645C18BF7FEA655C29D094EA00
:102B0000050F08BF90EA020F05D054EA000C04BF7D
:102B10001946104630BD91EA030F1EBF0021002068
:102B200030BD5FEA545C05D14000494128BF41F007
:102B3000004130BD14F580043CBF01F5801130BD6B
:102B400001F0004545F0FE4141F470014FF00000F6
:102B500030BD7FEA645C1ABF194610467FEA655CA7
:102B60001CBF0B46024650EA013406BF52EA033549
:102B700091EA030F41F4002130BD00BF90F0000F37
:102B800004BF0021704730B54FF4806404F1320473
:102B90004FF000054FF0000150E700BF90F0000F2C
:102BA00004BF0021704730B54FF4806404F1320453
:102BB00010F0004548BF40424FF000013EE700BF23
:102BC00042004FEAE2014FEA31014FEA02701FBFB3
:102BD00012F07F4393F07F4F81F06051704732F0E5
:102BE0007F4208BF704793F07F4F04BF41F400213C
:102BF000704730B54FF4607401F0004521F000419A
:102C00001CE700BF50EA010208BF704730B54FF023
:102C100000050AE050EA010208BF704730B511F024
:102C2000004502D5404261EB41014FF4806404F15C
:102C300032045FEA915C3FF4D8AE4FF003025FEAE2
:102C4000DC0C18BF03325FEADC0C18BF033202EB66
:102C5000DC02C2F1200300FA03FC20FA02F001FAC0
:102C600003FE40EA0E0021FA02F11444BDE600BF63
:102C700070B54FF0FF0C4CF4E06C1CEA11541DBF12
:102C80001CEA135594EA0C0F95EA0C0F00F0DEF8DD
:102C90002C4481EA030621EA4C5123EA4C5350EAC2
:102CA000013518BF52EA033541F4801143F4801313
:102CB00038D0A0FB02CE4FF00005E1FB02E506F0A4
:102CC0000042E0FB03E54FF00006E1FB03569CF0F9
:102CD000000F18BF4EF0010EA4F1FF04B6F5007FFF
:102CE00064F5407404D25FEA4E0E6D4146EB060671
:102CF00042EAC62141EA55514FEAC52040EA5E50FA
:102D00004FEACE2EB4F1FD0C88BFBCF5E06F1ED8A3
:102D1000BEF1004F08BF5FEA500E50F1000041EBDA
:102D2000045170BD06F0004646EA010140EA020087
:102D300081EA0301B4EB5C04C2BFD4EB0C0541EAA9
:102D4000045170BD41F480114FF0000E013C00F3BE
:102D5000AB8014F1360FDEBF002001F0004170BDE2
:102D6000C4F10004203C35DA0C341BDC04F11404FB
:102D7000C4F1200500FA05F320FA04F001FA05F287
:102D800040EA020001F0004221F0004110EBD37054
:102D900021FA04F642EB06015EEA430E08BF20EA80
:102DA000D37070BDC4F10C04C4F1200500FA04F323
:102DB00020FA05F001FA04F240EA020001F00041B5
:102DC00010EBD37041F100015EEA430E08BF20EA28
:102DD000D37070BDC4F1200500FA05F24EEA020E70
:102DE00020FA04F301FA05F243EA020321FA04F09F
:102DF00001F0004121FA04F220EA020000EBD37056
:102E00005EEA430E08BF20EAD37070BD94F0000F55
:102E10000FD101F00046400041EB010111F4801F89
:102E200008BF013CF7D041EA060195F0000F18BF3A
:102E3000704703F00046520043EB030313F4801F76
:102E400008BF013DF7D043EA0603704794EA0C0F30
:102E50000CEA135518BF95EA0C0F0CD050EA410646
:102E600018BF52EA4306D1D181EA030101F00041C3
:102E70004FF0000070BD50EA410606BF10461946EB
:102E800052EA430619D094EA0C0F02D150EA0136F7
:102E900013D195EA0C0F05D152EA03361CBF104638
:102EA00019460AD181EA030101F0004141F0FE41D7
:102EB00041F470014FF0000070BD41F0FE4141F45B
:102EC000780170BD70B54FF0FF0C4CF4E06C1CEA5B
:102ED00011541DBF1CEA135594EA0C0F95EA0C0F10
:102EE00000F0A7F8A4EB050481EA030E52EA0335CB
:102EF0004FEA013100F088804FEA03334FF08055EC
:102F000045EA131343EA12634FEA022245EA111518
:102F100045EA10654FEA00260EF000419D4208BFC9
:102F2000964244F1FD0404F5407402D25B084FEA76
:102F30003202B61A65EB03055B084FEA32024FF422
:102F400080104FF4002CB6EB020E75EB030E22BF7F
:102F5000B61A754640EA0C005B084FEA3202B6EB3F
:102F6000020E75EB030E22BFB61A754640EA5C00EE
:102F70005B084FEA3202B6EB020E75EB030E22BF7E
:102F8000B61A754640EA9C005B084FEA3202B6EB7F
:102F9000020E75EB030E22BFB61A754640EADC003E
:102FA00055EA060E18D04FEA051545EA16754FEAA0
:102FB00006164FEAC30343EA52734FEAC2025FEABE
:102FC0001C1CC0D111F4801F0BD141EA00014FF04D
:102FD00000004FF0004CB6E711F4801F04BF01431E
:102FE0000020B4F1FD0C88BFBCF5E06F3FF6AFAE3A
:102FF000B5EB030C04BFB6EB020C5FEA500C50F1CA
:10300000000041EB045170BD0EF0004E4EEA11314C
:1030100014EB5C04C2BFD4EB0C0541EA045170BD53
:1030200041F480114FF0000E013C90E645EA060E97
:103030008DE60CEA135594EA0C0F08BF95EA0C0FC5
:103040003FF43BAF94EA0C0F0AD150EA01347FF40D
:1030500034AF95EA0C0F7FF425AF104619462CE7E4
:1030600095EA0C0F06D152EA03353FF4FDAE104647
:10307000194622E750EA410618BF52EA43067FF498
:10308000C5AE50EA41047FF40DAF52EA43057FF428
:10309000EBAE12E74A0011D212F5001211D20DD593
:1030A0006FF47873B3EB62520ED44FEAC12343F04E
:1030B000004343EA505323FA02F070474FF00000F8
:1030C000704750EA013002D14FF0FF3070474FF0A7
:1030D00000007047014B1868704700BF10000020C7
:1030E000034613F8012B002AFBD1181A0138704748
:1030F00030B5141E05469BB0184605DA8B232B60AD
:103100004FF0FF301BB030BD4FF40273ADF80C3000
:1031100014BF04F1FF332346029305934FF6FF7368
:1031200000910491ADF80E3002461E9B6946284678
:1031300000F072F8431CBCBF8B232B60002CE1D045
:10314000009B00221A70DDE707B5009313460A467C
:10315000014603480068FFF7CBFF03B05DF804FBAE
:10316000100000202DE9F0478E689E4282460C46F2
:103170009046994637D88A8912F4906F31D02568E5
:1031800009696F1A6569022305EB450595FBF3F59F
:1031900009F101033B449D4238BF1D46530530D51C
:1031A000294600F07FFB064650B90C23CAF80030D0
:1031B000A38943F04003A3814FF0FF30BDE8F087BF
:1031C0003A46216900F0FCFAA38923F4906343F0A6
:1031D0008003A381266165613E44ED1B2660A560E6
:1031E0004E464E4500D94E4632464146206800F0D4
:1031F000F2FAA3689B1BA36023681E44266000208C
:10320000DCE72A4600F0A8FB06460028E2D1216947
:10321000504600F0F9FAC8E72DE9F04F9DB080461E
:1032200003938B891D060C4616460FD50B696BB9A7
:10323000402100F037FB2060206128B90C23C8F83A
:1032400000304FF0FF30C7E0402363610023099353
:1032500020238DF8293030238DF82A304FF0010BD0
:1032600037463D4615F8013B0BB1252B3ED1B7EB58
:10327000060A0BD05346324621464046FFF772FFFE
:10328000013000F0A480099B534409933B78002B44
:1032900000F09D8000234FF0FF32CDE90523049319
:1032A00007938DF853301A932F46052217F8011B08
:1032B0004F4800F035FA049BD0B9D90644BF20220C
:1032C0008DF853201A0744BF2B228DF853202A78FB
:1032D0002A2A15D0079A2F4600200A25394611F8C8
:1032E000013B303B092B4DD9B8B10FE02F46B8E771
:1032F0003F4A801A0BFA00F0184304903D46D3E78A
:10330000039A111D12680391002A01DB079204E061
:10331000524243F00203079204933B782E2B0CD1C8
:103320007B782A2B33D1039B1A1D1B680392002B39
:10333000B8BF4FF0FF33023705932E4D3978032283
:10334000284600F0EDF938B14023401B03FA00F0A5
:10335000049B034301370493397827488DF82810DC
:1033600006227E1C00F0DCF9002838D0234B13BB6A
:10337000039B073323F0070308330393099B4B4454
:1033800009936DE705FB023201200F46A6E70023F3
:103390000137059319460A25384610F8012B303AB3
:1033A000092A03D9002BC8D00591C6E705FB0121E6
:1033B00001230746F0E703AB00932246104B04A914
:1033C0004046AFF30080B0F1FF3F8146D6D1A389DC
:1033D0005B063FF536AF09981DB0BDE8F08F03AB33
:1033E00000932246064B04A9404600F081F8EAE724
:1033F000E43B0008EA3B0008EE3B00080000000048
:10340000653100082DE9F04791461F468A680B692F
:10341000DDF820809342B8BF1346C9F8003091F818
:10342000432006460C4612B10133C9F80030236828
:10343000990642BFD9F800300233C9F80030256838
:1034400015F0060507D104F1190AE368D9F8002040
:103450009B1AAB4228DC94F843302268003318BF33
:10346000012392062DD404F1430239463046C04769
:10347000013020D02368E568D9F8002003F0060366
:10348000042B08BFAD1AA36822690CBF25EAE575B5
:1034900000259342C4BF9B1AED184FF000091A345F
:1034A0004D451AD1002008E00123524639463046E6
:1034B000C047013003D14FF0FF30BDE8F087013540
:1034C000C3E7E1185A1C302081F84300224494F8E5
:1034D000451082F843100233C5E7012322463946DE
:1034E0003046C0470130E6D009F10109D8E70000B5
:1034F0002DE9F04301F1430C0C46097E85B06E299D
:103500001746064698460C9A00F0B38022D86329E5
:1035100036D00AD8002900F0B980582900F08380FD
:1035200004F1420584F8421032E0642901D069298F
:10353000F6D120681368050603F104012AD51B683B
:103540001160002B03DA2D225B4284F843206F4880
:103550000A2239E0732900F09D8008D86F2920D015
:103560007029DDD1236843F02003236003E075292F
:1035700017D07829D4D1782384F84530644855E0B1
:103580001368191D1B68116004F1420584F842306C
:1035900001238CE01B68116010F0400F18BF1BB2B4
:1035A000CFE713682568181D1060280601D51B6831
:1035B00002E06806FBD51B8854486F2914BF0A2215
:1035C0000822002184F843106568A560002DC0F230
:1035D0009580216821F004012160002B3DD1002D50
:1035E00040F08E806546082A0BD12368DB0708D59A
:1035F000236962689A42DEBF302305F8013C05F179
:10360000FF35ACEB05032361CDF800803B4603AAF0
:1036100021463046FFF7F6FE01304DD14FF0FF3026
:1036200005B0BDE8F083394884F845101368216877
:103630001D1D1B6815600A060BD5CA0744BF41F063
:10364000200121601BB9226822F020022260102292
:10365000B7E74D0648BF9BB2EFE76546B3FBF2F113
:1036600002FB1133C35C05F8013D0B460029F5D17F
:10367000B9E7136825686169181D106028061B6882
:1036800001D5196002E06A06FBD519800023236189
:103690006546B9E71368191D11601D68626800214D
:1036A000284600F03DF808B1401B60606368236164
:1036B000002384F84330A7E723692A463946304679
:1036C000C0470130AAD023689B0713D4E068039B4E
:1036D0009842B8BF1846A3E701234A463946304608
:1036E000C04701309AD00135E368039A9B1AAB4278
:1036F000F2DCEBE7002504F11909F5E7002BACD16A
:10370000037884F8423004F142056CE7F53B000889
:10371000063C00080000000000000000000000005F
:1037200001F0FF01102A2BDB10F0070F08D010F872
:10373000013B013A8B422DD010F0070F42B3F6D176
:10374000F0B441EA012141EA014122F007047FF08F
:1037500000070023F0E80256083C85EA010586EAE6
:10376000010685FA47F5A3FA87F586FA47F6A5FA22
:1037700087F68EB9EED1F0BC01F0FF0102F007022E
:1037800032B110F8013B013A83EA010313B1F8D1D9
:103790000020704701387047002D06BF35460338BA
:1037A000073815F0010F07D1013015F4807F02BFF3
:1037B000013015F4C03F0130F0BC0138704700BF44
:1037C00010B5431E0A44914200D110BD11F8014BBF
:1037D00003F8014FF7E7884210B501EB020307D861
:1037E000421E99420AD011F8014B02F8014FF8E746
:1037F0008342F5D98118D21AD34200D110BD13F8F3
:10380000014D01F8014DF7E738B50546002945D0CF
:1038100051F8043C0C1F002BB8BFE41800F0D2F89C
:103820001F4A1368104633B9636014602846BDE828
:10383000384000F0C8B8A3420CD9216862189342FE
:1038400004BF1A685B68636004BF5218226004609A
:10385000ECE713465A680AB1A242FAD91968581817
:10386000A0420BD120680144581882421960DDD172
:10387000106852685A6001441960D7E702D90C23D6
:103880002B60D3E7206821188A4204BF1168526870
:10389000626004BF091821605C60C7E738BD00BFE3
:1038A0007801002070B5CD1C25F0030508350C2DDE
:1038B00038BF0C25002D064601DBA94203D90C2395
:1038C0003360002070BD00F07DF8214A1468214665
:1038D00091B9204C23681BB9304600F063F8206092
:1038E0002946304600F05EF8431C24D10C23336097
:1038F000304600F068F8E4E70B685B1B18D40B2B2C
:103900000FD90B60CD50CC18304600F05CF804F1B4
:103910000B00231D20F00700C31AD3D05A42E250F7
:10392000D0E78C424B6816BF636013600C46EBE730
:103930000C464968CCE7C41C24F00304A04205D01F
:10394000211A304600F02EF80130CFD02560DBE799
:10395000780100207C010020F8B5074614460E4689
:1039600021B91146BDE8F840FFF79CBF22B9FFF727
:103970004BFF25462846F8BD00F026F8A0420FD29E
:1039800021463846FFF78EFF05460028F2D0314623
:103990002246FFF715FF31463846FFF735FFE9E7C6
:1039A0003546E7E738B5064C002305460846236050
:1039B000FDF7A4F9431C02D1236803B12B6038BD85
:1039C000840100207047704751F8043C181F002BF9
:1039D000BCBF0B58C01870472E2E2F7379737465B7
:1039E0006D2F7372632F73746D333266342D68617B
:1039F0006C2F73746D3332663478785F68616C5FF6
:103A0000636F727465782E63000000000000000090
:103A10000102030401020304060708092E2E2F7376
:103A2000797374656D2F7372632F73746D3332669F
:103A3000342D68616C2F73746D3332663478785F1F
:103A400068616C5F7263632E6300000061626F7275
:103A50007428292C2065786974696E672E2E2E00D3
:103A60006173736572745F706172616D282920667D
:103A700061696C65643A2066696C65202225732251
:103A80002C206C696E652025640A00005374616304
:103A90006B206672616D653A0A000000205230208A
:103AA0003D2020253038580A0000000020523120E7
:103AB0003D2020253038580A0000000020523220D6
:103AC0003D2020253038580A0000000020523320C5
:103AD0003D2020253038580A0000000020523132A5
:103AE000203D20253038580A00000000204C52208C
:103AF0003D2020253038580A000000002050432087
:103B00003D2020253038580A000000002050535234
:103B1000203D20253038580A000000004653522F1F
:103B20004641523A0A0000002043465352203D20AD
:103B300020253038580A00002048465352203D20A6
:103B400020253038580A00002044465352203D209A
:103B500020253038580A00002041465352203D208D
:103B600020253038580A0000204D4D464152203D56
:103B700020253038580A00002042464152203D207E
:103B800020253038580A00004D6973630A00000090
:103B9000204C522F4558435F52455455524E3D20BC
:103BA000253038580A0000005B4861726446617530
:103BB0006C745D0A000000005B4275734661756CB1
:103BC000745D0A005B55736167654661756C745D71
:103BD0000A000000000000000000000001020304D1
:103BE00006070809232D302B2000686C4C00656601
:103BF000674546470030313233343536373839413E
:103C00004243444546003031323334353637383953
:073C10006162636465660058
:103C18007856341280000020000000000024F400D0
:103C28001400002000000000000000000000000058
:103C3800000000000000000000000000000000007C
:103C4800000000000000000000000000000000006C
:103C5800000000000000000000000000000000005C
:103C6800000000000000000000000000000000004C
:103C7800000000000000000000000000000000003C
:083C88000000000032547698A0
:040000050800019559
:00000001FF
